:100000000C942A000C9447000C9447000C94470071
:100010000C9447000C9447000C9447000C94470044
:100020000C9447000C9447000C9447000C94400635
:100030000C9447000C948C000C9447000C944700DF
:100040000C9447000C9447000C9447000C94470014
:100050000C94470011241FBECFE5D8E0DEBFCDBF12
:1000600013E0A0E6B0E0E2E5F9E102C005900D92F0
:10007000AA38B107D9F724E0AAE8B3E001C01D927D
:10008000A43EB207E1F70E948D070C94A70C0C94D4
:100090000000806487B983E08A95F1F70000369A02
:1000A000349BFECF349A84B195B10895CF92DF92FC
:1000B000EF92FF92CF93DF93EC0170E080E090E04D
:1000C0000E94C6086B017C01BE0180E090E00E94A6
:1000D000C4082DEB37E346E858E30E9452099B0120
:1000E000AC01C701B6010E9430080E949808615017
:1000F00069B910BC8AB188698AB980B5866880BD43
:100100007894DF91CF91FF90EF90DF90CF9008959A
:100110005D9BFECF8CB908951F920F920FB60F9280
:1001200011242F938F939F93EF93FF932CB12093E0
:100130007B0480918A0390918B03FC01E052FC4F79
:100140002083019690938B0380938A03FF91EF9114
:100150009F918F912F910F900FBE0F901F90189528
:10016000DC0120E008C05D9BFECFFD01E80FF91F18
:1001700080818CB92F5F822F90E0FD0101900020DB
:10018000E9F73197EA1BFB0B8E179F0760F3089581
:10019000672B09F09FC0009711F4D898089581301B
:1001A000910511F4D99808958230910511F4DA98E7
:1001B00008958330910511F4DB98089584309105FA
:1001C00011F4DC9808958530910511F4DD980895B7
:1001D0008630910511F4DE9808958730910511F469
:1001E000DF9808958A30910511F4C09808958B30F6
:1001F000910511F4C19808958C30910511F4C298BD
:1002000008958D30910511F4C39808958E309105AD
:1002100011F4C49808958F30910511F4C59808958C
:100220008031910511F4C69808958131910511F43A
:10023000C79808958431910511F4A89808958531DF
:10024000910511F4A99808958631910511F4AA98A1
:1002500008958731910511F4AB980895883191057F
:1002600011F4AC9808958931910511F4AD98089571
:100270008A31910511F4AE9808958B31910511F4EE
:10028000AF9808958E31910511F4909808958F31AB
:10029000910511F4919808958032910511F4929886
:1002A00008958132910511F4939808958232910551
:1002B00011F4949808958332910511F49598089556
:1002C0008432910511F496980895859709F09FC09E
:1002D00097980895009711F4D89A08958130910560
:1002E00011F4D99A08958230910511F4DA9A08959B
:1002F0008330910511F4DB9A08958430910511F44F
:10030000DC9A08958530910511F4DD9A08958630C0
:10031000910511F4DE9A08958730910511F4DF9A62
:1003200008958A30910511F4C09A08958B30910593
:1003300011F4C19A08958C30910511F4C29A089570
:100340008D30910511F4C39A08958E30910511F402
:10035000C49A08958F30910511F4C59A089580319B
:10036000910511F4C69A08958131910511F4C79A47
:1003700008958431910511F4A89A08958531910565
:1003800011F4A99A08958631910511F4AA9A089555
:100390008731910511F4AB9A08958831910511F4D4
:1003A000AC9A08958931910511F4AD9A08958A3176
:1003B000910511F4AE9A08958B31910511F4AF9A1D
:1003C00008958E31910511F4909A08958F31910519
:1003D00011F4919A08958032910511F4929A08953A
:1003E0008132910511F4939A08958232910511F4A6
:1003F000949A08958332910511F4959A0895843260
:10040000910511F4969A0895859709F4979A08959D
:10041000CF93C82F80FF07C061E070E082E290E0D8
:100420000E94C80006C060E070E082E290E00E9496
:10043000C800C1FF07C061E070E083E290E00E9465
:10044000C80006C060E070E083E290E00E94C8004F
:10045000C2FF07C061E070E084E290E00E94C80043
:1004600006C060E070E084E290E00E94C800C3FF34
:1004700007C061E070E085E290E00E94C80006C01D
:1004800060E070E085E290E00E94C800CF9108959E
:10049000CF93C82F60E070E080E290E00E94C80037
:1004A0008C2F0E94080261E070E081E290E00E94DF
:1004B000C80089EF90E00197F1F700C0000060E00C
:1004C00070E081E290E00E94C80089EF90E001971F
:1004D000F1F700C00000CF91089580E00E9448022B
:1004E00081E00E9448020895CF93C62F813059F4CD
:1004F00080E8860F82958F700E9448028C2F8F7043
:100500000E9448020CC0823051F480EC860F829524
:100510008F700E9448028C2F8F700E944802CF91EA
:10052000089580E00E94080287E893E10197F1F7BF
:1005300000C0000083E00E94480281EE94E0019731
:10054000F1F700C0000083E00E9448028DEB9AE0C2
:100550000197F1F700C0000083E00E94480282E0AA
:100560000E94480282E00E94480288E00E944802FD
:1005700080E00E9448028CE00E94480280E00E94D5
:10058000480286E00E9448020895CF93C82F61E098
:1005900070E080E290E00E94C8008C2F82958F70FE
:1005A0000E94080261E070E081E290E00E94C800D1
:1005B00089EF90E00197F1F700C0000060E070E083
:1005C00081E290E00E94C80089EF90E00197F1F786
:1005D00000C000008C2F8F700E94080261E070E064
:1005E00081E290E00E94C80089EF90E00197F1F766
:1005F00000C0000060E070E081E290E00E94C8006E
:1006000089EF90E00197F1F700C00000CF910895C5
:10061000CF93DF93EC018881882331F021960E94EB
:10062000C50289918111FBCFDF91CF910895CF93BE
:10063000DF93C62FD72F1F922DE02F931F9222E218
:100640002F939F938F931F922F9384E690E09F9315
:100650008F938CE893E09F938F930E94D6091F920B
:100660008AE18F93DF93CF9385E790E09F938F93F9
:1006700081EB94E09F938F930E94D6098EE693E0DE
:100680000E94B0002FE986E891E021508040904020
:10069000E1F700C0000083E693E00E94B0002FE97C
:1006A00086E891E0215080409040E1F700C00000D2
:1006B0008CE893E00E94B0002FE986E891E0215099
:1006C00080409040E1F700C0000081EB94E00E9480
:1006D000B0008DE00E9488002FE78AE196E021506B
:1006E00080409040E1F700C000000E946D0260E091
:1006F00070E081E090E00E9474028AE790E00E943E
:1007000008032FE38DE093E0215080409040E1F713
:1007100000C000000E946D028DB79EB744960FB6D0
:10072000F8949EBF0FBE8DBFDF91CF9108950F93B8
:100730001F93CF93DF93C82FD62F142F022F8091B2
:100740006300C8130CC080916200681308C08091D8
:100750006100481304C0809160002817C9F1C133BB
:1007600011F4C09A03C0C03309F4C098D13311F416
:10077000C19A03C0D03309F4C198113311F4C29A5D
:1007800003C0103309F4C298013311F4C39A03C0B3
:10079000003309F4C39867E870E08DE990E00E94A7
:1007A00017030E946D0260E070E081E090E00E941B
:1007B000740289EA90E00E9408032FE38DE093E041
:1007C000215080409040E1F700C000000E946D027F
:1007D000C0936300D09362001093610000936000A7
:1007E000DF91CF911F910F9108950E946D0260E0FB
:1007F00070E081E090E00E9474028AEB90E00E9439
:1008000008038AEC90E00E94B0002FE986E891E0AE
:10081000215080409040E1F700C000008AEC90E059
:100820000E94B0002FE986E891E02150804090407E
:10083000E1F700C000008AEC90E00E94B0002FE9D0
:1008400086E891E0215080409040E1F700C0000030
:1008500084E493E00E94B0002FE986E891E0215003
:1008600080409040E1F700C000008AE293E00E94DF
:10087000B0002FE986E891E0215080409040E1F7F8
:1008800000C000008CE193E00E94B0002FE382E4FE
:100890009FE0215080409040E1F700C000008EE0D2
:1008A00093E00E94B0002FE986E891E0215080405B
:1008B0009040E1F700C000000E946D0208950E9480
:1008C0006D0260E070E081E090E00E9474028EECC6
:1008D00090E00E9408038AEC90E00E94B0002FE9AB
:1008E00086E891E0215080409040E1F700C0000090
:1008F0008AEC90E00E94B0002FE986E891E0215058
:1009000080409040E1F700C0000081E093E00E9449
:10091000B0002FE986E891E0215080409040E1F757
:1009200000C0000082EE92E00E94B0002FE986E84D
:1009300091E0215080409040E1F700C0000082EC3F
:1009400092E00E94B0002FE986E891E021508040BB
:100950009040E1F700C000008DEA92E00E94B000F4
:100960002FE986E891E0215080409040E1F700C0F7
:1009700000000E946D0208950E946D0260E070E028
:1009800081E090E00E9474028DED90E00E940803E7
:100990008AEC90E00E94B0002FE986E891E02150B7
:1009A00080409040E1F700C000008AEC90E00E9497
:1009B000B0002FE986E891E0215080409040E1F7B7
:1009C00000C0000085E392E00E94B0002FE986E8B5
:1009D00091E0215080409040E1F700C0000082E2A9
:1009E00092E00E94B0002FE986E891E0215080401B
:1009F0009040E1F700C0000085E192E00E94B00065
:100A00002FE786E998E9215080409040E1F700C047
:100A1000000083E092E00E94B0002FE784E89EE1AE
:100A2000215080409040E1F700C000000E946D021C
:100A300060E070E081E090E00E9474028DEE90E052
:100A40000E9408032FE38DE093E021508040904006
:100A5000E1F700C000000E946D0208950E946D023F
:100A600060E070E081E090E00E9474028FEF90E01F
:100A70000E94080380E00E94490099230CF401962B
:100A800095958795805691409093AB038093AA03E8
:100A900020916300203349F0213369F424EE31E0E2
:100AA00030937D0420937C0406C02DE031E0309328
:100AB0007D0420937C0420916200203349F021338F
:100AC00069F424EE31E03093AD032093AC0306C00B
:100AD0002DE031E03093AD032093AC032091610011
:100AE000203349F0213369F424EE31E03093E403FC
:100AF0002093E30306C02DE031E03093E40320931C
:100B0000E30320916000203349F0213369F424EE9F
:100B100031E03093E2032093E10306C02DE031E0A1
:100B20003093E2032093E1039F938F938091E2033C
:100B30008F938091E1038F938091E4038F93809151
:100B4000E3038F938091AD038F938091AC038F93D8
:100B500080917D048F9380917C048F9381E191E05B
:100B60009F938F938EEA93E09F938F930E94D60971
:100B70008AEC90E00E94B0002FE986E891E02150D5
:100B800080409040E1F700C000008AEC90E00E94B5
:100B9000B0002FE986E891E0215080409040E1F7D5
:100BA00000C0000081E992E00E94B0002FE986E8D1
:100BB00091E0215080409040E1F700C000008EE7B6
:100BC00092E00E94B0002FE986E891E02150804039
:100BD0009040E1F700C0000081E792E00E94B00081
:100BE0002FE78DE89BE5215080409040E1F700C061
:100BF000000081E692E00E94B0002FE986E891E0D3
:100C0000215080409040E1F700C000008EEA93E060
:100C10000E94B0002FE986E891E02150804090408A
:100C2000E1F700C0000082E592E00E94B0002FE9E9
:100C300086E891E0215080409040E1F700C000003C
:100C40000E946D0260E070E081E090E00E9474021A
:100C500086E491E00E9408032FE38DE093E02150A9
:100C600080409040E1F700C000000E946D028DB707
:100C70009EB70E960FB6F8949EBF0FBE8DBF089517
:100C80001F920F920FB60F9211240F931F932F9361
:100C90003F934F935F936F937F938F939F93AF9304
:100CA000BF93CF93DF93EF93FF9380917E048F5F89
:100CB00080937E0480917E048E3109F019C186E50F
:100CC00091E00E9408032FE38DE093E021508040E3
:100CD0009040E1F700C000000E946D02D0E0C0E04B
:100CE00020EE33E005C09C012F5F3F4FD82FC92F66
:100CF00064E773E0C9010E94BC090097A1F700E016
:100D000010E020EE33E005C09C012F5F3F4F082F1D
:100D1000192F63E671E0C9010E94BC090097A1F791
:100D20006D2F7C2F89E494E00E94B50980917A04AC
:100D30008334F9F490917B049D3409F05BC0909169
:100D40007C04943409F056C02091810430E0409135
:100D5000800450E060917F0470E080917E0490E018
:100D60000E94970310928B0310928A0310927E04C4
:100D7000BFC0843409F580917B04873509F08BC0AE
:100D800080917C048E3409F086C080917D048C347F
:100D900009F081C080917E04843409F07CC00E94F7
:100DA000F5030E945F040E94BC0410928B03109212
:100DB0008A0310927E049CC08535E1F480917B0407
:100DC000803509F068C080917C048C3409F063C0E0
:100DD00080917D04843409F05EC00E94F5030E9476
:100DE0005F040E942E0510928B0310928A031092CA
:100DF0007E047EC0893409F04EC080917B048E341D
:100E000009F049C080917C04863409F044C0809187
:100E10007D048F3409F03FC080E00E94490099238F
:100E20000CF4019695958795805691409093AB036D
:100E30008093AA039F938F93809160001F928F935A
:100E4000809161001F928F93809162001F928F9317
:100E5000809163001F928F938BE691E09F938F9315
:100E60008EEA93E09F938F930E94D6096EEA73E017
:100E70008DE990E00E94170310928B0310928A0371
:100E800010927E048DB79EB70E960FB6F8949EBF53
:100E90000FBE8DBF2DC0602F712F85EE93E00E9495
:100EA000B5098091EF038334E9F48091F0038D3428
:100EB000C9F48091F1038434A9F42091F60330E061
:100EC0004091F50350E06091F40370E08091F303EA
:100ED00090E00E94970310928B0310928A03109265
:100EE0007E0406C010928B0310928A0310927E0437
:100EF000FF91EF91DF91CF91BF91AF919F918F9132
:100F00007F916F915F914F913F912F911F910F9121
:100F10000F900FBE0F901F901895CF93DF93CDB712
:100F2000DEB764970FB6F894DEBF0FBECDBF8CEF6F
:100F300081BB0E94910268E080E895E20E94560021
:100F40000E946D0265E081E00E94740288EC91E0ED
:100F50000E9408032FE986E891E0215080409040EC
:100F6000E1F700C0000060E082E00E94740280EDC2
:100F700091E00E94080300E010E00F2EF8EDCF2E64
:100F8000F1E0DF2EF02DCE0101967C016CE082E0D5
:100F90000E9474021F930F93DF92CF92FF92EF9201
:100FA0000E94D609C7010E9408036FE082E00E94F8
:100FB00074028BED91E00E9408038FE493EC01979B
:100FC000F1F700C000000F5F1F4F0F900F900F90C0
:100FD0000F900F900F9005361105C1F69FEB27E299
:100FE00089E0915020408040E1F700C000000E945D
:100FF0006D028FEF87BB88BB83B7856083BF89B7DE
:10100000816089BF12BE80E487B983E886B960E059
:1010100081E00E9474028DED91E00E9408039FE33D
:101020002DE083E0915020408040E1F700C00000B7
:101030000E946D0267EE71E08DE990E00E94170357
:101040008AEC90E00E94B0009FE926E881E0915090
:1010500020408040E1F700C000000E946D02FFCFF9
:101060000CD0E6C0DED040F0D5D030F021F45F3FA8
:1010700019F0C7C0511110C1CAC0EBD098F3992321
:10108000C9F35523B1F3951B550BBB27AA2762174C
:101090007307840738F09F5F5F4F220F331F441F91
:1010A000AA1FA9F333D00E2E3AF0E0E830D09150C9
:1010B0005040E695001CCAF729D0FE2F27D0660FB6
:1010C000771F881FBB1F261737074807AB07B0E8F5
:1010D00009F0BB0B802DBF01FF2793585F4F2AF00B
:1010E0009E3F510568F08DC0D7C05F3FECF3983E3E
:1010F000DCF3869577956795B795F7959F5FC9F768
:10110000880F911D9695879597F90895E1E0660FF0
:10111000771F881FBB1F621773078407BA0720F069
:10112000621B730B840BBA0BEE1F88F7E0950895D2
:1011300098D088F09F5790F0B92F9927B751A0F019
:10114000D1F0660F771F881F991F1AF0BA95C9F75B
:1011500012C0B13081F09FD0B1E008959CC0672FDC
:10116000782F8827B85F39F0B93FCCF3869577950B
:101170006795B395D9F73EF49095809570956195F4
:101180007F4F8F4F9F4F0895E89409C097FB3EF41F
:1011900090958095709561957F4F8F4F9F4F9923C4
:1011A000A9F0F92F96E9BB279395F6958795779542
:1011B0006795B795F111F8CFFAF4BB0F11F460FF02
:1011C0001BC06F5F7F4F8F4F9F4F16C0882311F05A
:1011D00096E911C0772321F09EE8872F762F05C06E
:1011E000662371F096E8862F70E060E02AF09A9509
:1011F000660F771F881FDAF7880F9695879597F9FE
:10120000089597F99F6780E870E060E008959FEF88
:1012100080EC089500240A9416161706180609068D
:10122000089500240A94121613061406050608955C
:10123000092E0394000C11F4882352F0BB0F40F4E4
:10124000BF2B11F460FF04C06F5F7F4F8F4F9F4F24
:10125000089557FD9058440F551F59F05F3F71F0A6
:101260004795880F97FB991F61F09F3F79F087950D
:101270000895121613061406551FF2CF4695F1DF96
:1012800008C0161617061806991FF1CF8695710526
:10129000610508940895E894BB2766277727CB015A
:1012A00097F908950BD0C4CFB5DF28F0BADF18F056
:1012B000952309F0A6CFABCF1124EECFCADFA0F360
:1012C000959FD1F3950F50E0551F629FF001729FDB
:1012D000BB27F00DB11D639FAA27F00DB11DAA1FFA
:1012E000649F6627B00DA11D661F829F2227B00D47
:1012F000A11D621F739FB00DA11D621F839FA00DD2
:10130000611D221F749F3327A00D611D231F849F21
:10131000600D211D822F762F6A2F11249F57504078
:101320008AF0E1F088234AF0EE0FFF1FBB1F661F13
:10133000771F881F91505040A9F79E3F510570F0CC
:1013400060CFAACF5F3FECF3983EDCF386957795AC
:101350006795B795F795E7959F5FC1F7FE2B880FC7
:10136000911D9695879597F90895FB01DC010190F1
:101370000D920020E1F70895FB0151915523A9F04A
:10138000BF01DC014D9145174111E1F759F4CD0141
:101390000190002049F04D9140154111C9F3FB0126
:1013A0004111EFCF81E090E001970895AEE0B0E009
:1013B000ECEDF9E00C947E0C0D891E8986E08C839F
:1013C0001A8309838FEF9FE79E838D83AE01475E6B
:1013D0005F4F6F89788DCE0101960E94F809EF81E9
:1013E000F885E00FF11F10822E96E4E00C949A0C21
:1013F000ACE0B0E0EEEFF9E00C94700C7C016B0116
:101400008A01FC0117821682838181FFBDC1CE0152
:1014100001964C01F7019381F60193FD859193FFAD
:1014200081916F01882309F4ABC1853239F493FDB2
:10143000859193FF81916F01853229F4B70190E086
:101440000E94E00BE7CF512C312C20E02032A0F499
:101450008B3269F030F4803259F0833269F42061C4
:101460002CC08D3239F0803339F4216026C02260DF
:10147000246023C0286021C027FD27C030ED380F2D
:101480003A3078F426FF06C0FAE05F9E300D112452
:10149000532E13C08AE0389E300D1124332E206263
:1014A0000CC08E3221F426FD6BC1206406C08C3640
:1014B00011F4206802C0883641F4F60193FD85914D
:1014C00093FF81916F018111C1CF982F9F7D95541A
:1014D000933028F40C5F1F4FFFE3F9830DC0833670
:1014E00031F0833771F0833509F05BC022C0F80119
:1014F000808189830E5F1F4F44244394512C5401F3
:1015000015C03801F2E06F0E711CF801A080B180A7
:1015100026FF03C0652D70E002C06FEF7FEFC501AD
:101520002C870E94D50B2C0183012C852F77222E2E
:1015300017C03801F2E06F0E711CF801A080B18075
:1015400026FF03C0652D70E002C06FEF7FEFC5017D
:101550002C870E94CA0B2C012C852068222E830127
:1015600023FC1BC0832D90E048165906B0F4B70148
:1015700080E290E00E94E00B3A94F4CFF50127FC62
:10158000859127FE81915F01B70190E00E94E00BF9
:1015900031103A94F1E04F1A51084114510471F797
:1015A000E5C0843611F0893639F5F80127FF07C008
:1015B00060817181828193810C5F1F4F08C06081BF
:1015C0007181882777FD8095982F0E5F1F4F2F76AA
:1015D000B22E97FF09C090958095709561957F4FC9
:1015E0008F4F9F4F2068B22E2AE030E0A4010E9466
:1015F000120CA82EA81844C0853729F42F7EB22ECD
:101600002AE030E025C0F22FF97FBF2E8F36C1F0DF
:1016100018F4883579F0B4C0803719F0883721F094
:10162000AFC02F2F2061B22EB4FE0DC08B2D846071
:10163000B82E09C024FF0AC09F2F9660B92E06C09D
:1016400028E030E005C020E130E002C020E132E0D7
:10165000F801B7FE07C060817181828193810C5FC0
:101660001F4F06C06081718180E090E00E5F1F4FC8
:10167000A4010E94120CA82EA818FB2DFF77BF2EE4
:10168000B6FE0BC02B2D2E7FA51450F4B4FE0AC05D
:10169000B2FC08C02B2D2E7E05C07A2C2B2D03C04A
:1016A0007A2C01C0752C24FF0DC0FE01EA0DF11D3E
:1016B0008081803311F4297E09C022FF06C0739413
:1016C000739404C0822F867809F0739423FD13C0AD
:1016D00020FF06C05A2C731418F4530C5718732C9F
:1016E000731468F4B70180E290E02C870E94E00B4D
:1016F00073942C85F5CF731410F4371801C0312C76
:1017000024FF12C0B70180E390E02C870E94E00B19
:101710002C8522FF17C021FF03C088E590E002C09E
:1017200088E790E0B7010CC0822F867859F021FD40
:1017300002C080E201C08BE227FD8DE2B70190E09C
:101740000E94E00BA51438F4B70180E390E00E94FA
:10175000E00B5A94F7CFAA94F401EA0DF11D8081B1
:10176000B70190E00E94E00BA110F5CF332009F4FF
:1017700051CEB70180E290E00E94E00B3A94F6CFA0
:10178000F7018681978102C08FEF9FEF2C96E2E1EF
:101790000C948C0CFC010590615070400110D8F73E
:1017A000809590958E0F9F1F0895FC0161507040A9
:1017B00001900110D8F7809590958E0F9F1F089586
:1017C0000F931F93CF93DF93182F092FEB018B817A
:1017D00081FD03C08FEF9FEF20C082FF10C04E81BC
:1017E0005F812C813D81421753077CF4E881F981A8
:1017F0009F012F5F3F4F39832883108306C0E88500
:10180000F985812F0995892B29F72E813F812F5F3B
:101810003F4F3F832E83812F902FDF91CF911F91D8
:101820000F910895FA01AA27283051F1203181F152
:10183000E8946F936E7F6E5F7F4F8F4F9F4FAF4FD8
:10184000B1E03ED0B4E03CD0670F781F891F9A1FEB
:10185000A11D680F791F8A1F911DA11D6A0F711D9F
:10186000811D911DA11D20D009F468943F912AE0AB
:10187000269F11243019305D3193DEF6CF01089593
:10188000462F4770405D4193B3E00FD0C9F7F6CFC4
:10189000462F4F70405D4A3318F0495D31FD40528C
:1018A000419302D0A9F7EACFB4E0A6959795879522
:1018B00077956795BA95C9F7009761057105089501
:1018C0009B01AC010A2E06945795479537952795AD
:1018D000BA95C9F7620F731F841F951FA01D089545
:1018E0002F923F924F925F926F927F928F929F9230
:1018F000AF92BF92CF92DF92EF92FF920F931F931E
:10190000CF93DF93CDB7DEB7CA1BDB0B0FB6F894CE
:10191000DEBF0FBECDBF09942A88398848885F840E
:101920006E847D848C849B84AA84B984C884DF807F
:10193000EE80FD800C811B81AA81B981CE0FD11D63
:101940000FB6F894DEBF0FBECDBFED010895F89439
:02195000FFCFC7
:101952003131313141542B434D47533D256325737A
:10196200256325630025732563004D6573736167E5
:10197200652053656E74004E6577204368616E671B
:10198200657320417265204D6164652E00303933E4
:101992003030303933343535004368616E676573F2
:1019A20020417265204D61646500475052532043C7
:1019B2006F6E6E656374696F6E0041540D0046541C
:1019C2005020436F6E6E656374696F6E00446F776B
:1019D2006E6C6F6164696E67202E2E2E00446F77E5
:1019E2006E6C6F616420436F6D706C657465005539
:1019F200706C6F6164696E67202E2E2E004F464612
:101A0200004C454431202573204C45443220257337
:101A1200204C454433202573204C45443420257303
:101A22002054656D7065726174757265202564203D
:101A320020202020200055706C6F616420436F6D60
:101A4200706C65746500454E44204F462054494DE4
:101A52004552004368616E676573004C454431200E
:101A62003D202563202C204C454432203D20256317
:101A7200202C204C454433203D202563202C204C33
:101A8200454434203D20256320202C2054656D7070
:101A92006572617475726520697320256420004146
:101AA20054442B257325632563004469616C6C697A
:101AB2006E67202E2E2E200057656C636F6D6500B9
:101AC2004C6F6164696E670025640025004D6F6488
:101AD200756C65204F4E0048656C6C6F2041646DDB
:101AE200696E2C204D6F64756C65206973206F6E72
:101AF200202E0041542B4654504745543D322C3140
:101B02003032340D0041542B4654504745543D3138
:101B12000D0041542B465450474554504154483DC2
:101B2200222F220D0041542B4654504745544E411A
:101B32004D453D224368616E6765732E7478742249
:101B42000D0041542B4654505055543D322C300D0B
:101B52000041542B4654505055543D322C35300DD3
:101B62000041542B4654505055543D310D004154C0
:101B72002B465450505554504154483D222F220D6B
:101B82000041542B4654505055544E414D453D2230
:101B92005374617475732E747874220D0041542B42
:101BA20046545050573D2261646D696E3132332282
:101BB2000D0041542B465450554E3D2253494D3948
:101BC2003030406D617261686E616D612E697222A2
:101BD2000D0041542B465450534552563D226674D3
:101BE200702E6D617261686E616D612E6972220D77
:101BF2000041542B4654504349443D310D00415459
:101C02002B53415042523D322C310D0041542B5343
:101C1200415042523D312C310D0041542B53415021
:101C220042523D332C312C2241504E222C227777C6
:101C320077220D0041542B53415042523D332C31F7
:101C42002C22436F6E74797065222C2247505253B6
:101C5200220D0041542B434D47463D310D00415466
:101C620045300D002B434D543A20222B393839335D
:0A1C720030303039333435352200AC
:00000001FF
